:03000000020A42AF
:0C0A4200787FE4F6D8FD758125020A8952
:100BB900414C41524D0053455420414C41524D0046
:100BC900616D00706D005345542054494D494E479D
:060BD90000202020200096
:100C4B00020800000212000002180000020C000053
:0C0C5B0002160000020A0000021A00004D
:080B9100C282D2807F017E00C8
:100B9900E4FDFCC3ED9FEC9E5015E4FBFA0BBB0092
:0F0BA900010ABA04F8BBFBF50DBD00010C80E496
:010BB800221A
:090C9C007FC87E00120B997F0154
:0A0CA5008FA0C281120B91C28022C1
:0E0C84007FC3120CA5AF09AE08120BDF7F3A3A
:0A0C92008FA0D281120B91C28022C4
:0B0ACE007FC8120CA57BFF7A0B79C9D2
:060AD9008B218A22892313
:100ADF00E4F524F525AB21AA22A9238525828524B7
:100AEF008312098AFF6010120C920525E52570020A
:070AFF000524120B9580DEB7
:010B060022CC
:040BDF008F828E83F0
:100BE3007C007D0A1209B7EF2430FF120C92AE830A
:100BF300AF827C007D0A1209B7ED2430FF020C920C
:100C68008B1E8A1F89207F38120CA57F0E120CA5B7
:0C0C7800120B95AB1EAA1FA920020AD97E
:100B3F000509E50970020508D3940BE50864809454
:100B4F00804005E4F508F5097FC3120CA5AF09AE87
:090B5F0008120BDF7F3A020C9230
:100C03000519E51970020518D3943BE5186480941F
:100C1300804005E4F518F5197FC6120CA5AF19AE8F
:040C230018020BDFC9
:100B68000513E51370020512D3940BE51264809403
:100B7800804005E4F512F5137FC3120CA5AF13AE40
:090B880012120BDF7F3A020C92FD
:100C2700050DE50D7002050CD3943BE50C6480942B
:100C3700804005E4F50CF50D7FC6120CA5AF0DAE8F
:040C47000C020BDFB1
:100B0700E515B51332E514B5122DE511B50D28E538
:100B170010B50C23E50BB51B1EE50AB51A19D297BC
:100B27007FC5120CA57BFF7A0B79B9120C687F0A77
:080B37007E00120B99C2972207
:10080000D292D290D291D294C2977F83120CA57BC0
:10081000FF7A0B79BF120C68120C84AF19AE181254
:100820000BDF2094157F0A7E00120B992090031293
:100830000B682091ED120C2780E8209308120ACE55
:10084000E4F51AF51B3093147FC8120CA57BFF7AD0
:100850000B79CC120AD9751A00751B01120C9C7FFA
:1008600083120CA57BFF7A0B79CF120C68120C84D3
:10087000AF19AE18120BDF2092157F0A7E00120B03
:1008800099209003120B3F2091ED120C0380E82079
:100890009308120ACEE4F50AF50B3093147FC812C0
:1008A0000CA57BFF7A0B79CC120AD9750A00750B5F
:1008B00001120C9CE4F51CF51D850814850915C36F
:1008C000E515940CE51464809480400302095A8570
:1008D0001810851911C3E511943CE51064809480CB
:1008E0005068E4F50EF50F7F82120CA5120B95AF40
:1008F00015AE14120C8DAF11AE10120C8DAF0FAEE1
:100900000E120BDFE50B450A7BFF70067A0B79C9E7
:1009100080047A0B79CC120C687F507E00120B9900
:10092000120B077BFF7A0B79DA120AD9050FE50F54
:100930007002050EC3943CE50E6480948040A805C7
:1009400011E511700205100208D5E4F518F5190536
:1009500015E515700205140208BFE50B450A70077E
:10096000F50A750B018005E4F50AF50BE4F508F5C9
:1009700009051DE51D7002051CC39402E51C648079
:0A098000948050030208B90208B485
:100A4E00020800E493A3F8E493A34003F68001F2B6
:100A5E0008DFF48029E493A3F85407240CC8C333A9
:100A6E00C4540F4420C8834004F456800146F6DF78
:100A7E00E4800B0102040810204080900C4BE47EB1
:100A8E00019360BCA3FF543F30E509541FFEE4936D
:100A9E00A360010ECF54C025E060A840B8E493A334
:100AAE00FAE493A3F8E493A3C8C582C8CAC583CA5F
:100ABE00F0A3C8C582C8CAC583CADFE9DEE780BE17
:010C6700008C
:10098A00BB010CE58229F582E5833AF583E0225022
:10099A0006E92582F8E622BBFE06E92582F8E2226C
:0D09AA00E58229F582E5833AF583E4932286
:1009B700C2D5EC30E709B2D5E4C39DFDE49CFCEE5B
:1009C70030E715B2D5E4C39FFFE49EFE1209EDC3DD
:1009D700E49DFDE49CFC80031209ED30D507C3E4D8
:0609E7009FFFE49EFE22CA
:1009ED00BC000BBE0029EF8DF084FFADF022E4CCEE
:1009FD00F875F008EF2FFFEE33FEEC33FCEE9DECB7
:100A0D00984005FCEE9DFE0FD5F0E9E4CEFD22EDFC
:100A1D00F8F5F0EE8420D21CFEADF075F008EF2F46
:100A2D00FFED33FD4007985006D5F0F222C398FD37
:050A3D000FD5F0EA22D4
:00000001FF
